{
  "address": "0x5FbDB2315678afecb367f032d93F642f64180aa3",
  "abi": [
    {
      "anonymous": false,
      "inputs": [
        {
          "indexed": true,
          "internalType": "address",
          "name": "author",
          "type": "address"
        },
        {
          "indexed": false,
          "internalType": "string",
          "name": "desc",
          "type": "string"
        },
        {
          "indexed": false,
          "internalType": "uint256",
          "name": "price",
          "type": "uint256"
        },
        {
          "indexed": false,
          "internalType": "uint256",
          "name": "id",
          "type": "uint256"
        },
        {
          "indexed": false,
          "internalType": "bool",
          "name": "isFinished",
          "type": "bool"
        }
      ],
      "name": "jobAdded",
      "type": "event"
    },
    {
      "anonymous": false,
      "inputs": [
        {
          "indexed": true,
          "internalType": "address",
          "name": "author",
          "type": "address"
        },
        {
          "indexed": true,
          "internalType": "address",
          "name": "worker",
          "type": "address"
        },
        {
          "indexed": false,
          "internalType": "uint256",
          "name": "id",
          "type": "uint256"
        },
        {
          "indexed": false,
          "internalType": "uint256",
          "name": "pricePaid",
          "type": "uint256"
        }
      ],
      "name": "jobIsFinishedAndPaid",
      "type": "event"
    },
    {
      "anonymous": false,
      "inputs": [
        {
          "indexed": true,
          "internalType": "address",
          "name": "worker",
          "type": "address"
        },
        {
          "indexed": false,
          "internalType": "uint256",
          "name": "id",
          "type": "uint256"
        }
      ],
      "name": "jobTaken",
      "type": "event"
    },
    {
      "inputs": [
        {
          "internalType": "string",
          "name": "_desc",
          "type": "string"
        }
      ],
      "name": "addJob",
      "outputs": [],
      "stateMutability": "payable",
      "type": "function"
    },
    {
      "inputs": [
        {
          "internalType": "uint256",
          "name": "_id",
          "type": "uint256"
        }
      ],
      "name": "setIsFinishedAndPay",
      "outputs": [],
      "stateMutability": "nonpayable",
      "type": "function"
    },
    {
      "inputs": [
        {
          "internalType": "uint256",
          "name": "_id",
          "type": "uint256"
        }
      ],
      "name": "takeJob",
      "outputs": [],
      "stateMutability": "nonpayable",
      "type": "function"
    }
  ],
  "transactionHash": "0x94cf6627cf7ca37308b55aad6253610920ec84fd4623744ae15e1830a9052137",
  "args": [],
  "numDeployments": 1,
  "solcInputHash": "16125bed2ba52bbf9e612ad4444cd904",
  "bytecode": "0x608060405234801561001057600080fd5b506107ec806100206000396000f3fe6080604052600436106100345760003560e01c806375cb0ac8146100395780637e8762f7146100555780639330d9bc1461007e575b600080fd5b610053600480360381019061004e9190610318565b6100a7565b005b34801561006157600080fd5b5061007c6004803603810190610077919061039b565b6102a3565b005b34801561008a57600080fd5b506100a560048036038101906100a0919061039b565b6102a6565b005b60006040518060a001604052803373ffffffffffffffffffffffffffffffffffffffff168152602001600073ffffffffffffffffffffffffffffffffffffffff16815260200184848080601f016020809104026020016040519081016040528093929190818152602001838380828437600081840152601f19601f820116905080830192505050505050508152602001348152602001600015158152509050600081908060018154018082558091505060019003906000526020600020906005020160009091909190915060008201518160000160006101000a81548173ffffffffffffffffffffffffffffffffffffffff021916908373ffffffffffffffffffffffffffffffffffffffff16021790555060208201518160010160006101000a81548173ffffffffffffffffffffffffffffffffffffffff021916908373ffffffffffffffffffffffffffffffffffffffff1602179055506040820151816002019081610215919061060e565b506060820151816003015560808201518160040160006101000a81548160ff02191690831515021790555050503373ffffffffffffffffffffffffffffffffffffffff167f55f4e04c8a8ba099607e3993996c0b30c9d5ff7618c0d8d31e6e7c9ffa60c0948484346000805490506000604051610296959493929190610768565b60405180910390a2505050565b50565b50565b600080fd5b600080fd5b600080fd5b600080fd5b600080fd5b60008083601f8401126102d8576102d76102b3565b5b8235905067ffffffffffffffff8111156102f5576102f46102b8565b5b602083019150836001820283011115610311576103106102bd565b5b9250929050565b6000806020838503121561032f5761032e6102a9565b5b600083013567ffffffffffffffff81111561034d5761034c6102ae565b5b610359858286016102c2565b92509250509250929050565b6000819050919050565b61037881610365565b811461038357600080fd5b50565b6000813590506103958161036f565b92915050565b6000602082840312156103b1576103b06102a9565b5b60006103bf84828501610386565b91505092915050565b600081519050919050565b7f4e487b7100000000000000000000000000000000000000000000000000000000600052604160045260246000fd5b7f4e487b7100000000000000000000000000000000000000000000000000000000600052602260045260246000fd5b6000600282049050600182168061044957607f821691505b60208210810361045c5761045b610402565b5b50919050565b60008190508160005260206000209050919050565b60006020601f8301049050919050565b600082821b905092915050565b6000600883026104c47fffffffffffffffffffffffffffffffffffffffffffffffffffffffffffffffff82610487565b6104ce8683610487565b95508019841693508086168417925050509392505050565b6000819050919050565b600061050b61050661050184610365565b6104e6565b610365565b9050919050565b6000819050919050565b610525836104f0565b61053961053182610512565b848454610494565b825550505050565b600090565b61054e610541565b61055981848461051c565b505050565b5b8181101561057d57610572600082610546565b60018101905061055f565b5050565b601f8211156105c25761059381610462565b61059c84610477565b810160208510156105ab578190505b6105bf6105b785610477565b83018261055e565b50505b505050565b600082821c905092915050565b60006105e5600019846008026105c7565b1980831691505092915050565b60006105fe83836105d4565b9150826002028217905092915050565b610617826103c8565b67ffffffffffffffff8111156106305761062f6103d3565b5b61063a8254610431565b610645828285610581565b600060209050601f8311600181146106785760008415610666578287015190505b61067085826105f2565b8655506106d8565b601f19841661068686610462565b60005b828110156106ae57848901518255600182019150602085019450602081019050610689565b868310156106cb57848901516106c7601f8916826105d4565b8355505b6001600288020188555050505b505050505050565b600082825260208201905092915050565b82818337600083830152505050565b6000601f19601f8301169050919050565b600061071d83856106e0565b935061072a8385846106f1565b61073383610700565b840190509392505050565b61074781610365565b82525050565b60008115159050919050565b6107628161074d565b82525050565b60006080820190508181036000830152610783818789610711565b9050610792602083018661073e565b61079f604083018561073e565b6107ac6060830184610759565b969550505050505056fea2646970667358221220a8e754bd2e3d627ad8ded00ad7d06bd978f88729c2dd725ff3d12e6f2f27dc8864736f6c63430008110033",
  "devdoc": {
    "kind": "dev",
    "methods": {},
    "version": 1
  },
  "userdoc": {
    "kind": "user",
    "methods": {},
    "version": 1
  },
  "storageLayout": {
    "storage": [
      {
        "astId": 16,
        "contract": "contracts/Jobs.sol:Jobs",
        "label": "jobs",
        "offset": 0,
        "slot": "0",
        "type": "t_array(t_struct(Job)12_storage)dyn_storage"
      }
    ],
    "types": {
      "t_address": {
        "encoding": "inplace",
        "label": "address",
        "numberOfBytes": "20"
      },
      "t_array(t_struct(Job)12_storage)dyn_storage": {
        "base": "t_struct(Job)12_storage",
        "encoding": "dynamic_array",
        "label": "struct Jobs.Job[]",
        "numberOfBytes": "32"
      },
      "t_bool": {
        "encoding": "inplace",
        "label": "bool",
        "numberOfBytes": "1"
      },
      "t_string_storage": {
        "encoding": "bytes",
        "label": "string",
        "numberOfBytes": "32"
      },
      "t_struct(Job)12_storage": {
        "encoding": "inplace",
        "label": "struct Jobs.Job",
        "members": [
          {
            "astId": 3,
            "contract": "contracts/Jobs.sol:Jobs",
            "label": "author",
            "offset": 0,
            "slot": "0",
            "type": "t_address"
          },
          {
            "astId": 5,
            "contract": "contracts/Jobs.sol:Jobs",
            "label": "worker",
            "offset": 0,
            "slot": "1",
            "type": "t_address"
          },
          {
            "astId": 7,
            "contract": "contracts/Jobs.sol:Jobs",
            "label": "description",
            "offset": 0,
            "slot": "2",
            "type": "t_string_storage"
          },
          {
            "astId": 9,
            "contract": "contracts/Jobs.sol:Jobs",
            "label": "price",
            "offset": 0,
            "slot": "3",
            "type": "t_uint256"
          },
          {
            "astId": 11,
            "contract": "contracts/Jobs.sol:Jobs",
            "label": "isFinished",
            "offset": 0,
            "slot": "4",
            "type": "t_bool"
          }
        ],
        "numberOfBytes": "160"
      },
      "t_uint256": {
        "encoding": "inplace",
        "label": "uint256",
        "numberOfBytes": "32"
      }
    }
  }
}